:03000000020006F5
:03005F0002000399
:0300030002006296
:1000620075800090C3501200A67580FF90C3501295
:1000720000A675805590C3501200A67580AA90C341
:10008200501200A675805590C3501200A67580AA22
:1000920090C3501200A675800090C3501200A612A1
:1000A20000B680FBAE82AF83EE4F60071EBEFF013B
:1000B2001F80F5222090159003E81200A6A290302E
:1000C20090FD9003E81200A6A290B28020911590B4
:1000D20003E81200A6A2913091FD9003E81200A657
:1000E200A291B2812092159003E81200A6A292304A
:1000F20092FD9003E81200A6A292B282209315907C
:1001020003E81200A6A2933093FD9003E81200A622
:10011200A293B2832094159003E81200A6A2943011
:1001220094FD9003E81200A6A294B2842095159043
:1001320003E81200A6A2953095FD9003E81200A6EE
:10014200A295B2852096159003E81200A6A29630D9
:1001520096FD9003E81200A6A296B286209715900B
:1001620003E81200A6A2973097FD9003E81200A6BA
:05017200A297B28722F4
:06003500E478FFF6D8FD9F
:100013007900E94400601B7A0090017B780175A0A8
:1000230000E493F2A308B8000205A0D9F4DAF2754C
:02003300A0FF2C
:10003B007800E84400600A790175A000E4F309D860
:10004B00FC7800E84400600C7900900001E4F0A318
:04005B00D8FCD9FAFA
:0D000600758107120177E582600302000397
:04017700758200226B
:00000001FF
