:03000000020006F5
:10005F00750801750902750A04750B08750C107582
:0B006F000D20750E40750F800200038D
:0300030002007A7E
:10007A007F00EF2408F98790900064C0071200946B
:10008A00D0070FBF080040EA80E6AE82AF83EE4F8A
:10009A00601B7C6E7D00EC24FFFAED34FFFB8A04C2
:0E00AA008B05EA4B70F01EBEFF011F80E122A5
:06003500E478FFF6D8FD9F
:100013007900E94400601B7A009000BC780175A068
:1000230000E493F2A308B8000205A0D9F4DAF2754C
:02003300A0FF2C
:10003B007800E84400600A790175A000E4F309D860
:10004B00FC7800E84400600C7900900001E4F0A318
:04005B00D8FCD9FAFA
:0D00060075810F1200B8E58260030200034F
:0400B800758200222B
:00000001FF
