:03000000020006F5
:03005F0002000399
:0300030002006296
:2000620075800190C3501200AF7F008FF005F07401800225E0D5F0FBF58090C350C0071284
:2000820000AFD0070FBF080040E17F008FF005F074808002C313D5F0FBF58090C350C00703
:1D00A2001200AFD0070FBF080040E180BCAE82AF83EE4F60071EBEFF011F80F522DE
:06003500E478FFF6D8FD9F
:200013007900E94400601B7A009000C3780175A000E493F2A308B8000205A0D9F4DAF275D0
:02003300A0FF2C
:20003B007800E84400600A790175A000E4F309D8FC7800E84400600C7900900001E4F0A3C3
:04005B00D8FCD9FAFA
:0D0006007581071200BFE582600302000350
:0400BF007582002224
:00000001FF
