:03000000020006F5
:03005F0002000399
:0300030002006296
:1000620075800190C3501200BC7F008F068EF00590
:10007200F07401800225E0D5F0FBF58090C350C0FA
:10008200071200BCD0070FBF080040DF7F008FF0CF
:1000920005F07D80E4FE3392D28008A2D2EE13FEF8
:1000A200ED13FDD5F0F58D8090C350C0071200BC52
:1000B200D0070FBF080040D680AFAE82AF83EE4FAD
:0A00C20060071EBEFF011F80F5223B
:06003500E478FFF6D8FD9F
:100013007900E94400601B7A009000D0780175A054
:1000230000E493F2A308B8000205A0D9F4DAF2754C
:02003300A0FF2C
:10003B007800E84400600A790175A000E4F309D860
:10004B00FC7800E84400600C7900900001E4F0A318
:04005B00D8FCD9FAFA
:0D0006007581071200CCE582600302000343
:0400CC007582002217
:00000001FF
